:0200000080512D
:05000300C0D002540D05
:01000B0032C2
:0100130032BA
:03002300025CABD1
:05002B00C0D0025ABD27
:05005300C2B5025B1ABA
:10005B00C0D0020373010F0E0A080A080305040C33
:10006B000606060606060F0F0F0F0F0F0F0F0F0FCB
:10007B000F0F0F0F53544F502254525920414741E9
:10008B00494E22524541445922202D20494E204CA5
:10009B00494E45202250524F4752414D204348452F
:0900AB00434B53554D203D20222A
:10010000071C106A2B085602178E26EB190D3D634B
:1001100046BD4E254E455C2A4E5E5C110918058091
:100120000A280A5C2FF23256234E26080A2F0C1A90
:10013000237E1010100D21DD0D7A04FA319B0E6B19
:1001400025DD19390F100B8C24000B192BE40D0A37
:100150000E0E0BA10EF70AC40A380AE609ED0AB220
:100160000AB7194818B22B082A6F2A4C25B0804CC0
:10017000455481434C454152825055534883474F23
:10018000544F84504C578542415544864F544C87B8
:10019000524F5388504F50895052494E54893F8A8C
:1001A0004F54558B4C44408C5354408D4F4E494EC8
:1001B000548E44494D8F535452494E479058504C99
:1001C000914F4E54494D45924F5354934F5445943B
:1001D000444F95524553544F52459652454D974E74
:1001E000455854984F4E455252994F4E9A494E5049
:1001F00055549B524541449C444154419D52455461
:1002000055524E9E49469F474F535542A0464F5226
:10021000A15748494C45A2554E54494CA34F54430D
:10022000A4544142A55448454EA6544FA7535445A3
:1002300050A8454C5345A9535043AA4352AB544987
:1002400043AC534554525443AD5844415445AE58C1
:100250004D5448AF584354E028E12A2AE22AE32BC0
:10026000E42FE52DE62E584F522EE72E414E442E18
:10027000E82E4F522EEA3DEB3E3DEC3C3DED3C3E40
:10028000EE3CEF3EB0414253B1494E54B253474E5B
:10029000B34E4F54B4434F53B554414EB653494EE9
:1002A000B7535152B8584244B9455850BA41544EC8
:1002B000BB4C4F47BC444259BD584259BE5049BF40
:1002C000524E44C0494E4B4559C146524545C24C19
:1002D000454EC3504F525430C44D544F50C6414404
:1002E00043C7495052C849453052C949453152CA9D
:1002F000414443C55057524F4646CB414443CC41FD
:100300004443CD44414331CE504F525431CF444108
:100310004330D0414443D141534328D24628D343AC
:10032000485228F052554EF14C495354F2434C4B2D
:10033000534554F34E4557F4434F4E54F5484558F2
:1003400044554D50F6425354F7434845434BF852F9
:10035000454E554DF953415645FA45524153454C8A
:10036000FB4C4F4144FC455241534548FD45484DE7
:10037000454DFFD295C29575C800C0E0C083C082CC
:10038000C0F0C2E0A29092E0A29192E1A2C792E2F4
:10039000A2B592E3C0E0C2B5D290D291D2C790028A
:1003A000AFE557F0C291C2C7900000E0B56D02F50D
:1003B0005AF56DC290900000E0C0E0E55830E60BC1
:1003C000D0E0B51F028006F51F8043D0E0F56CE554
:1003D00059F4F559E56C55597006E56CF559802EC0
:1003E000551D30E002D23030E102D23130E202D28B
:1003F0003230E302D23330E402D23430E502D23577
:1004000030E602D23630E702D237E56CF559D557DF
:10041000267557FFE558D2E7F55830101A0549E41C
:10042000B549020548E549B54C00400BE548B54BD8
:10043000004004D214C210D0E0A2E09290A2E19257
:1004400091A2E292C7A2E392B5D0F0D082D083D03D
:10045000E0D0D032125C81900AA0EBF0A3E9F02248
:10046000E0FAA3E0F822CBC583CBC9C582C922023A
:100470000A83D224902000E01420E7F36015A31231
:100480005B0220240A91B991AFE020250640049137
:10049000CB80E4C22422902000D22480DAE0C0E0A5
:1004A000A3E0F582D08322E0FBA3E0F92291AFC55F
:1004B000827002158314C58222C225E0B5030AA307
:1004C000E091AFB50103B3B225B3222582F5825086
:1004D000020583221226649196740691CB91669050
:1004E0000AA891F391A7900AAC919D1209B3900AC2
:1004F000A491F3EBF0A3E9F0A322120E87900AACCB
:1005000091F30E8E3FA152900AA4919D91ADE060AF
:1005100020A3B5070FE0B5060BE5829402F8E5834A
:100520009400FA22E582C39409F58250E115838094
:10053000DD120E08C3B119E89406F9EA9400FB90A5
:100540000AA691F391B94035D3229020007401F0AE
:10055000C21591D4900AAA91A79196B16B9000FE12
:10056000E4F07511FE7509FEC21722125B02A3E4C6
:10057000F0E07009EBB583F3E9B582EF220215C70D
:10058000120EEC50CD120EE2B4530280D0B44904E6
:1005900012266422B452041226B322B44404122652
:1005A000CA22B443041226DC22B445041232362295
:1005B000B4500412265822B44204125BEF22B44F06
:1005C000031218F322B1C77D0DD13C7D0AC13CB1A5
:1005D000C7302A03125B02E493C2E7B4220122D29D
:1005E00027FD302A03125B05D13CA3800491667C71
:1005F0000D1027DDE06003B5040122B40DE30217FE
:10060000ABB40419B1C775A0007807125E3FFDB402
:100610007F0BB8071A7D07C208D13C80EEF2B40DFB
:1006200002A1C7B4200040EF08B856EB1880E618C6
:100630007D08D13CD13A7D0880DD7D20C0E0C083BB
:10064000C0829002FCE0B4550F12570CD082D083C8
:10065000D0E02212647F8033E57C20E3F65403B4BB
:1006600000303008139002AEE0D2E7F0900700852A
:100670005B82EDF0055B8013C2B4300007D1CC1271
:100680005B0580F68D993099FDC299D082D083D0D8
:10069000E022B401159002AEE0D2E4F0900E0085A5
:1006A0007682EDF00576C20E80E1B402DEE57C5480
:1006B00007B4060512570C80D29002AEE0D2E5F0E6
:1006C000900F00857882EDF0057880BFA298501ECB
:1006D000125B023098FAE599C298C2E7B41302D2CD
:1006E00000B41102C200B40304E4800322D3221236
:1006F0000704B1C71232CEC210C214302A0302104E
:10070000B7020809C229C208C222C200855C5B8503
:100710007776857978751700537CF022125A561235
:100720000550120B8E120A56600280030207FA125D
:100730000EC3120F2F125EBD120C52D2AFC22A8509
:100740003E8143871075FF00E55830E70AC2E7F5A0
:100750005812242E122D31300E1AC290C2919000E0
:1007600001E0D290D29130E30BC2B4C20E9002AE3F
:10077000E0C2E4F0850A42850843302A030207A953
:10078000302E02800FA298500BE599C298B4030452
:10079000E40206EF0222907C02120AEFD211E0FA84
:1007A000A3E0F81253D9020A5F12086CD2D38AA0D0
:1007B000E2C2D3B40D12D2D308B800010A8AA0E273
:1007C000C2D3B4011DD38027B43A0BD2D308B800EA
:1007D000010AC2D38019B4A805120F0780CEC30244
:1007E00017ADC5082403C50810D7028002050A40CA
:1007F0000302073F302A0302172902171F120F2393
:100800001238B5850A42850843C228C213C20BC2FA
:100810000812551012553BD217900821D21D02180C
:10082000540D0A53544F5022023518F50F120EE2A0
:10083000120972E50FB4C303021678120E94E50F85
:10084000B4C409900AAA1204F3020552B4C5D9220D
:10085000B4D1D8120ED6B424101209CF120DC6127C
:1008600014F212098E8BA0F3220208DAD2D38AA0E6
:10087000E2C2D3B4D40050028018B4E00050139008
:100880003500D2D308B800010AC2D3C394D4540FA0
:100890008074B420005010903800D2D308B8000102
:1008A0000AC2D3541F805FB4C30050A430E769B4B8
:1008B000BC063183317FF722B4BD06120983025092
:1008C000F0B4B803026F83B4AB004009B4B0005079
:1008D0000924F9801DB4A40040030217AB302A128A
:1008E000B49000400DB4A0028008B497028003B415
:1008F00096E8D2D308B800010AC2D390011CB48094
:100900000302086C543F232582F582E493C0E0A3E0
:10091000E493D083F582E473D1CA4050C215120427
:10092000667FEA91FAD1D8B42211AF3FD1E2D1EC7F
:1009300060A8F0B42226740DF0C1E2C083C082D159
:10094000CA4097D000D002AF3F1215A8B40D0122C3
:10095000DF05740DF2C16312158580EDDF063136B7
:10096000D163C1F7A380C5903B8761CC3170E1FAB8
:10097000F10CC002C0007FEAF14DD001D00322BBD0
:1009800000E522D2D308B800010AC2D391F4317233
:100990001214E1EEBF00D022D199317F09E960C77E
:1009A000900AA4853FF031C1900AAA1215C2853F72
:1009B000821583C3E99582F9EB9583FB492275F093
:1009C0000612049DE9A42582F9E5F03583FB223166
:1009D00098C003C0017F2C91FAD192E9B53F005035
:1009E0008619D0E029F9D00350010B81F83170C08D
:1009F00003C001F1FA7FA6F14DD1D8B4A706D1E228
:100A0000F14F800312148374EF716E717A7B00A929
:100A100000F1FAF1FAD1ADA80151F3D008D00A7C67
:100A20000151F3D1C302073FF14FD1D150FA22F166
:100A30000CF1F7D1D150F8225172F9D1D8B4A502F6
:100A4000D1E2B9000B7FA8D1F960ECD1E2B4A8F5EE
:100A5000F1415059016CE01420E72822124C88D152
:100A6000C310210930150312055002073DC21102BF
:100A7000073FF14F12129A600274FF22902000E0AB
:100A8000FFDF05903BC661CC20E7F8A3E0B5020884
:100A9000A31FE0B50002A322EF2582F582500205D4
:100AA00083125B0580D9F13C1253D9E1231253D94B
:100AB000415F5172F4800251727C03FD800AF13C67
:100AC000000207FA7C027D557105E2F58308E2F524
:100AD0008208E0B401030207FAED7002415F881159
:100AE000F46002415F22124C887C0251EF41237472
:100AF000FD716E75A000E508F218E50AF218ECF237
:100B0000227403716EA81175A000E2B504020822D8
:100B1000606CB401EC716C80EC7C017105880F791C
:100B20000BE2F70908B90FF9B17E5004AA0BA80C23
:100B3000EAB50B4AE8B50C46121005740E250FF8FD
:100B40007A008AA0E208C0E0121005C0001216EE7A
:100B500012146CAB0BA90CF1FA7A00D0001210053C
:100B6000121977D0E06001B372D5401774112511C6
:100B7000B461004009C51114F822F12350FB903CE8
:100B80003561CC850D0A850E0802073F7194D1A608
:100B9000D1C3F12FC50AC512C50AC508C510C508BD
:100BA000227194D1D14016F14FD1D8B42C028002D9
:100BB000F1237194F10CF1F7D1D150E522B49C04EA
:100BC000D1E280E3B401087194903BEC0217B5D1F7
:100BD000F7F12340F280CCD1D8B42311D1D6C0E0B4
:100BE000E57CD2E0C2E1F57CD0E0D2AF22B42511A1
:100BF000D1D6C0E0E57CC2E0D2E1F57CD0E0D2AF56
:100C000022B4400412646022C0E0E57CC2E0C2E18C
:100C1000F57CD0E0202A02D20822C222751700718A
:100C2000D7914EE57C20E3225403B4000B202A0721
:100C3000D2AC200B02D29922B4020712554C537C3D
:100C4000F022B40108D2B41255AD537CF022D1EC9D
:100C50004007023ABDD1D140F9D1B450F8B4A40450
:100C6000D1998005B4A90AD19960EA12063A148094
:100C7000F8B4D314D1D6B4240712102CD194800424
:100C8000D19291F8AD018007B4AA09D1E27D0D128D
:100C9000063C80C1B4D254D1D6B446167517F0D1F3
:100CA000D6D1E2540F6007B4030050027403421718
:100CB000802AB43007751700D1E28020B4231D913B
:100CC000E08F17B42E11D1D691E0EF251724F750FD
:100CD0000201DAEFC44217E517C4F51791F8815500
:100CE0007F00B423050FD1D680F822D1EE5003B493
:100CF000A83F81237FE0F14D7F29D2D38AA0E2086B
:100D0000B800010AC2D3B507C822D192D1E0B4839A
:100D100004B11C4123B49FB9B11C41E9B90006F1EB
:100D20003CD1F741A87F2CD1F9B42CA519D1E28090
:100D3000EBD1CA40051205ED8155F14F3022141256
:100D4000124D400F1213DA7007D194121989815590
:100D50001213EC121981E57FF454018169D1D61286
:100D600018E7400CB45F0122B441004004B45B00BA
:100D7000B32230D53E903BA861CCD2D58002C2D5FB
:100D8000D1D8B168500420D5EC22FFE4FDFEB15D5E
:100D90004007CF2DCF7D1A80F4C215B4E02F430653
:100DA00080120507C002C00050C820D528790A7BF0
:100DB00000B1E5D1A2BB00BDD082D083E014994040
:100DC000B41204AD31BEC9C8C9CBCACB2220D5A547
:100DD000120507C322D1A2BB009BD000D002B1E50F
:100DE000D1D150962209E9608CFC900AA831BEAF9F
:100DF00083AE82900AA61215C2900AA81204F38844
:100E0000828A83ECF01204ADEFF0A3EEF0220258D8
:100E100069D1B4D1D1500791527D3F12063C750F74
:100E200000750E07D1CA400DB1C6AB0FA90E3147F0
:100E3000D1D150E52212179D1218CD70181217A4A7
:100E4000F10CF1F712179DD1D14013E0B42C06A399
:100E50001217A480CF9000841205CF021794E0B43B
:100E60000D0122903C161205CF8152C214C210759A
:100E70004900754800D1878B4B894C900AA2020E1D
:100E800008311653D0E722120F4F7F2C120F4D025C
:100E900014E1F14F12126EE922D2D308B800010A10
:100EA000C2D391F480EE75832075820022850A8377
:100EB00085088222D1D8B42274D1ADA37C22120538
:100EC000F1A3C385830A85820822D1D8B4245E2188
:100ED00098D1D8B42C57D1E2D2D38AA0E2C2D3227F
:100EE000D1D8D2D308B800010AC2D322D1D8B40DC8
:100EF00002E422B43A37227F0DD1EC50F9B5070154
:100F000022D1E280F4D1E2D1EC70FA22B17E802EBF
:100F1000717A7C0351EF02073FB43A02C1E2B4A8F0
:100F200079F107D1D8B40DF1D1D6B40102D322C5DD
:100F3000082403C50810D70122050A22F141405AAE
:100F400022D1AD121985D1C38A8388822291FA7A7F
:100F500060C002C220E581240C50030217B2E509EB
:100F6000941F500302126520201AB17E50131210F4
:100F7000135011D2D38AA0E2C2D3B4E007746180C7
:100F800069121005D2D38AA0E2C2D3B4E000500E99
:100F9000B4B0005042D0022020B2C30217AD541F9B
:100FA000202005B4054A74092461FA90000093FCDE
:100FB000D0E0FD93B50404B40C92D3508FC005C0AB
:100FC00002D2D308B800010AC2D3F151D0E090395F
:100FD00000249F3106E155D2D308B800010AC2D3DC
:100FE00024C12020B5B47F0050E4C0E091F480DC3F
:100FF000B403A7D1E2E155120DC612129A0214B23F
:10100000E5590214EF121256D2200214B20251A96D
:10101000025166D2D38AA0E2C2D3B4D124D2D3087B
:10102000B800010A8AA0E2C2D3B424061209CF0292
:10103000522F1214EFD2D308B800010AC2D3020C07
:10104000F8120EAD1218CDB4FF02D3227006C3D22F
:1010500020020EC3540B60F3903B7730E003903BCB
:10106000B430E103903BDB0217B51256DB121420BB
:10107000120F41E4FBF940191217A4120EE0B4E577
:101080000D519A120F3C91F2AB0FA90E8003123250
:10109000D512047460211151125B05A3D172515312
:1010A0004015125E925156120EAD11C8115111B970
:1010B000A3E0D5E0E1519AE11F9000071205EF127D
:1010C0000EAD0205C7120466125B057B007907A30B
:1010D0001151120460121983120EADA3B90D004014
:1010E00022A3E0FE20E724B420005003B40D1CB47A
:1010F000220931713174B422FB80E1B43A09EE3136
:101100007180D9316D80D5317680D11151D2D59091
:10111000016E30D503903400E493A3B4FF0510D5DD
:10112000EEE11FB506F2B4E000500CB4D400500557
:10113000B4B0005002316DE49320E70960073171CB
:10114000A3054780F215471547120EADEE0259541C
:10115000B4E000500AB4D400500FB4B000500C6496
:10116000967004317480FC5002316D01DC742005EE
:1011700047F30922A3E0B40DF8C1507E0057226660
:10118000287F01375716167F00149690427F014042
:10119000962875800064626510800199882014800B
:1011A0000051359919800145313333810000000029
:1011B00010FF81000000002031DDD1EE91BF510011
:1011C000E54654016245916C31DD5153400491BFB5
:1011D000D1DB71DA9016A031E65125414791BF90DD
:1011E00011B29173815F916A31FB91889173918FF4
:1011F00031FB9173D1EEE493B4FFF31219790154EA
:1012000091AC915F71DAF545916A516EC0038946E0
:1012100071B8D1DB919631FBD00322916C31BC9136
:101220009A31B8815F519E7B0161CC71DAF54551ED
:101230009E247F9225500251C790117B31E63025C4
:101240000671EC31DDD1EEE545601961EC916C91F0
:1012500020919A02197774FA2509B419004006F50D
:1012600009F97B0122903C250167917331FBE4FB76
:10127000F9A80975A001E2C39481FC18E2705640F8
:10128000190CE89405F808E2C41219874047DC02FB
:101290008008E2121987403DDCEC74068001E4A866
:1012A000097A018AA02840BDF509E2229183510004
:1012B000BB002291AC519A91889183E546700EE56E
:1012C0004560E8900111F09183919A815F154691F4
:1012D0008F31FB80E602096771DA70F991AC918871
:1012E000780CE260242480500503547F8007F404C6
:1012F00003547FF4042480F29196918F915F918F33
:10130000D1EE31DF716730D5EF818F71DA70C6F5BC
:101310004608E260C0B481009225400251C7916C3A
:1013200091835153501D519E2485500E917074012C
:10133000254640A1F54631FB80E490177C917374FB
:101340000B80ED91AC9183D1DB91969183D1EE919D
:101350005F90167B31E6A3917331FBE54691EFD1A7
:10136000DB512530257422918F919A916C918802DE
:1013700019779170919A51AC900112E060E89196C2
:10138000918F519E6002710B31FB9170919A51AC1B
:101390007546009183916C9188919631FB0546E5E5
:1013A0004691EF915F916C918FD1EE716730D5E9E5
:1013B000519A918F31FB21FB519E94815007519A94
:1013C00090322C817394075010F404FB1818E254E7
:1013D000F0F2DB0122E4F2DBF42271EC7019F2226C
:1013E000519A60DC18E2FF9183EF600B519E186008
:1013F00006E26401F2640122516E120466301C029E
:10140000D2B5E0FAA3E0F8C2B50214F2516E1209A7
:101410007FE781EF12126E0250D8515372D540A06F
:1014200090142581738500005053655153B380EEAD
:101430005153A2D580F75153B2D580F6515380DE77
:10144000515372D580E79001001204A7E9C313F845
:1014500074061329C83BFA1582916491F291201207
:10146000197B0154EAF0A3E8F022916C519E80238D
:1014700090178251568BA07B06E493F3A319DBF9F6
:10148000D220229016C481737B01790C020FFA7866
:101490000C7A01021005781280F9519E7406FA2820
:1014A000F9E2FBE3F2EBF31918DAF622519E7B0125
:1014B00079127C068AA0E28BA0F3B19DDCF6229023
:1014C0001788817391E1EB5FFAE95E802491E1EB8B
:1014D0004FFAE94E801B912091E1EB6FFAE96E80A3
:1014E00010516EAF03AE01416EE55D101801E47A54
:1014F00000F8D22002198B7400120496AC82AD83DE
:10150000AB0FA90E1204747015E50DB4040122127C
:1015100015BAAA05A80412157274010215ABFF12C0
:1015200017A4E50D4009B40401E49F60204021FFA9
:10153000E50DB4040122EFB1BA12179DB1AF120D3F
:10154000C6A904AB050EBE00010F12159002156866
:10155000F4041204CB1215AFA982AB83AA0FA80E14
:101560006003121579121519AA0FA80EE50DB4041F
:101570000122E47904FBAE0DFF1215A812158512A5
:10158000166770F52208B800010A09B900010B229C
:101590001215A812159D12166770F5002218B8FFD3
:1015A000011A19B9FFF51B228BA0E38AA0F222ECE5
:1015B000C39582FEED9583FF4E222CF9E43DFB900E
:1015C0000AA41204B940F2903B950210671216F477
:1015D000120F411217A492D5900005121464A808A6
:1015E000790743871075FF00C22090016E8805E4DB
:1015F00093FFE2FBB461004007B47B005002C2E5F8
:10160000FAF2A3E493B502030880E720E731602FE4
:10161000A3E49320E70370F8A3A805B4FFCFBA2092
:1016200004080215E2202008D2209034000215EDB3
:1016300012164FB4220612164FB422FA0215E2EF28
:10164000121664B496F6EB12165012164F80FBE297
:10165000B40D10D000D000F3097401F3E99404F53F
:101660000D790408F309221EBEFF011FEF4E2290E0
:101670000AAA1204600214F2023545800071371381
:10168000197F007664379480000722751780005216
:10169000359328800071918586FF8100515802237F
:1016A0007700449005167901082105257B00197300
:1016B00055277D01701284197E00333333838001F6
:1016C00067666616810000000010FF0204F3121620
:1016D0006F120496A882AA831214F21219750210CE
:1016E0005412354BAA07EE0214F1122C882212195B
:1016F00073021054750A0075080722123D3E9002CD
:10170000F8E0123259125B0512284B7B0079077AF8
:10171000207800122826122858125B0522C21712C0
:101720000704E490008E1205CFD22A853E81121064
:10173000C2C21820C10F125B059002FCE0B4550232
:10174000800302071C7D3E12063C120606126FE360
:101750001215CD20D50A91F71204D412055D80D15F
:10176000D1F4120EEC60C2900100B4F000400A12F5
:101770000EE2540F12090680B002073F8500424175
:101780008759810018281827810026594131903B3C
:10179000F530172185420A854308020738850F83F3
:1017A000850E822285830F85820E22A22A903B6BB2
:1017B0008004903C06C3853E81C2B5D290D291D2BE
:1017C000C712657F1207041217A4125A892028062F
:1017D000201303125502900271E0D2E3F0C2C2D28C
:1017E000C3C2C5D292D2C6C292D292C2C612179DAD
:1017F000E493543F125D45A22A202A3430133185E8
:101800008345858246302805900980801CC0F09071
:10181000098075F003A42480F582D0F0E054807034
:10182000088545838546828007A312056202079ECC
:10183000A31217A4400312055D1205C5903D2D1299
:1018400005D1E54D9002FDF0122BB6903D39120501
:10185000D112179D1205D1302A05C21D02171F9003
:1018600000941205D1120EA6E41217A41204CB1292
:1018700018AB40066004E0B401EF12179D1218ABDC
:10188000E9F547A3121672121981201D1B1205C516
:1018900012179D1210C81210B915477D2D12063C63
:1018A000D547F87D3F12063C02185AAB0AA9080238
:1018B00009B3120EE0B43109D21075490075480021
:1018C00022B43003C21022903B870217B512197D53
:1018D0005012121985700CC083C08212198BD082ED
:1018E000D083E42202197FB43A00400122B43000D0
:1018F000B32232900250E4F005827470B582F72270
:101900009002FFE0B45503020A5C022400906FA627
:101910001205D11205C7906FBC1205D1122970E9CA
:10192000B460004006903B870217B59002702470A7
:10193000F582122C271205C72212234EEB2400F544
:1019400082758309E049F022758200758309E0F908
:0E1950006004E4F0126628A37440B582EE2213
:0319700002063C30
:101973002197218D414A417A41AF817681AFA16799
:10198300C1F7C19EC1D3E13F81A375A001A8091886
:10199300E2B2E0F29157EF600DBE0012914B7F0669
:1019A300E2F31819DFFAE5092406F509E4229E8F0C
:1019B300308C2F50098E308B2FF404C8C9C8FFC256
:1019C3001FBD0002D21F9168BF0B0040027F0A7542
:1019D3002A0071A87F04792E749EC39CD4CC700115
:1019E300FCB45000301F18B331F95008052A7F01A9
:1019F30071A8715F6150E237D4F71819DFF822E25A
:101A0300FEE43499972ED4F71819DFF34011B27816
:101A1300792E7F04749A972400D4F719B3DFF578ED
:101A23002B7F00E670080F0F08B82FF76198B410EA
:101A33000050010FE530C39F600B4009F53071E2A0
:101A4300752A00615061929157E509240CF509EE5E
:101A5300C2D59F600A4003EB8001EC6001B322BD55
:101A630000F57F04181818191919E2FEE39E70EAAD
:101A73000809DFF6D2D5229155BE000261988D2F59
:101A8300EF60F92E20E70510D706619250026181BD
:101A93009481FE716B7B04AC018C01E3FA9118EA2B
:101AA300C491181CDBF38E308D2F611091578D2F4D
:101AB300BF00067181E4D2E322EE60C09F20E704F9
:101AC3005004619250C82481F53091687A34AB0098
:101AD300752A007DFFD38B00792E7F045017E2FE19
:101AE300E434999E27D4F71819DFF30D40E8E794FF
:101AF30001F7B380E131F977008A00A6050A7F0177
:101B030071E0BA3ECED530026192752A007834E690
:101B1300FE6003715F18087408F928F8B6050040E1
:101B230013D3E41836D4D630E409D9F51876017105
:101B33005F800619E9C3C898F8792BE6C408D64232
:101B430006F70809B92FF4EE7003753000914B893D
:101B5300097830E6F31819B82AF9E4220530E5309C
:101B630070F9D0E0D0E06181C0017932E2540FF71F
:101B7300E2C4540F19F71819B92AF1D00122782EAB
:101B83007499F618B82AFB7530FF7150D2E12271AF
:101B930098E4D2E022719F7150D2E222E4783DF6BC
:101BA30018B829FB227C00C3EF60229402501FC0A7
:101BB30000C001792E782DECD7C4FCE7D6C4F71802
:101BC30019B92AF7E7C4540FF7D001D00022FFE474
:101BD300C52AC52BC52CC52DC52EFC80CB7C00C3C7
:101BE300EF60229402501FC000C001782A792BE6CF
:101BF300C4F6E7C4D6F70809B82EF7ECC4D654F0F8
:101C0300FCD001D00022FFE4CCC52EC52DC52CC5C8
:101C13002BC52A80CB540FFF783C7932E4F5331877
:101C230026D430E403180608D68FF0E7A475F00A2B
:101C330084C5F026D430E40205F008D618E5F0197F
:101C4300B92ADC2533D4F62275A001A80974062825
:101C5300F922719F914BE2FFE3FE1819E2FCE3FBCB
:101C63006CFD181922C000782EE3F61918B82AF96A
:101C7300D00022B14CC083C082E0F17F4012919624
:101C8300400EC2E5B44803D38001C3D082D083227F
:101C9300A380E6C2E5B44700400122B44100B32269
:101CA3007B007958D1F7740DF3900058719FB14CB4
:101CB300B152927878347E7FD2D5F17D5007540F9C
:101CC300B125A380F5B42E0C205163D251B834F260
:101CD300D25280EE20D557B465028003B44533B1A8
:101CE3004BB1529250F17D5045540FFDA3F17D50FD
:101CF3000D540FCD75F00AA42DFD50F07DFFED308E
:101D03005009C39EF40440097401222E5003740247
:101D130022CE8E30B83402719FE509C3940CF509C5
:101D23006110C2D5700BB83408305204DE0274FF60
:101D330022205302C2522052F32051010E2053F0AD
:101D4300B83D02D253F60822A3E0B4201680F9B4BA
:101D5300E302800EB42B028009B4E5028003B42DA4
:101D630002D3A322915731A9EFFE716B782BE517AC
:101D7300FB6049B4F0005071EE70027E80EBC454F6
:101D83000FFAD152CAC39AFF50067D3FD196A1BF25
:101D9300BA00071FD17DD1908006D17DEAFFD136ED
:101DA300EB540FFA60BDD186D15BB50203EAC1746F
:101DB30050FBCAC39ACAD174EAFFC136EE7002C19E
:101DC3008A7BF074772E402194F7401DD17FD15246
:101DD300B40802C136D136D1486057D1867F01D1CC
:101DE30036704FD148604B80F4D17F7F01D136D11B
:101DF30086EB540F6006FF1FD1368002B1E0D19409
:101E03007D45D196EE600414B48005D194E4800C32
:101E130040067D2BD1968004D182F404C2E7F87A80
:101E23000079587B00D1F77858E2FDD19608E8B5E0
:101E330001F722EF600EE64430081FFDD196E4B8A7
:101E430033F1745522A900E7700409B933F922EE7E
:101E5300C394805001E4FF22C374809E5001E422A6
:101E6300EF60FCE57F7D2030E2027D3031701F8022
:101E7300EFFFEF60EAD1901F80F8D163EC60167D2D
:101E83002D80107D2E800CD1987D3080067D308092
:101E9300027D202170E57F30E1F7229176921FF1D8
:101EA3007DB340287B0079008015A389008B02F164
:101EB3007D400C301F1691964003A3800F240975B3
:101EC300F00A301F0375F010D1D650DEE492E12200
:101ED30075F00AC0E0C0F0E9A4F9EBABF0D0F0A4D0
:101EE300A2D292D52BFBD0E072D54007540F29F92B
:101EF300E43BFB22E4902710F1149003E8F11490E3
:101F03000064F11490000AF114900001F1146020B0
:101F1300227EFF0ECAB58300CA4012C89582C8CA82
:101F23009583CA50EEC82582C8CA3583CA4E60E07D
:101F330074302E8BA0F309B900010B22E57FA2E5D3
:101F4300922930E302D194A229921FEBF174A229C2
:101F5300921FEBF175C21FE9F174E9F175E57F207A
:101F6300E4D97D48C196C21F2490D43440D4FD8067
:101F7300F3C4540F70F0301FED22B14CB43A00405B
:071F83000122B43000B3227B
:101F9000753E80853E81758700758DFA75985A75F6
:101FA0008921758844756D002093177B7F79FF2008
:101FB000C0047BFF79FF9019FF12337C90200074DE
:101FC00001F090FFFF7B02796F12337C9002FF7B60
:101FD0000A798F12337C900AFF7B1779FF12337CCA
:101FE0001264007870B6551408B6AA1008B6330CFF
:101FF00008B6CC089002FF7455F0800D9002FF7473
:10200000AAF0900270E4F0A3F078FFE4F6D8FCF6B2
:10201000787076550876AA0876330876CC75EA2D5E
:1020200075FE0175C50075C90375A984753E808567
:102030003E81754A077557FF756EF5756FFF756BB5
:1020400001751E0175741875550D757A0D757B0D2A
:10205000757600757700757800757900755800758C
:102060007F00C20BC2B4C2B3C2AFC2B5C21AC21C97
:10207000C2081218F21218F2125B0512332B122149
:1020800088125474122D89125B05122DCF7405200D
:10209000940274069002F8F09002FE741EF0900A0A
:1020A000AA747F20C00274FFF0A374FF20C00274E2
:1020B000FFF0900AA4747F20C00274FFF0A374FFA5
:1020C00020C00274FFF0900AA874FFF0A374FFF020
:1020D000900AA6747F20C00274FFF0A374FF20C092
:1020E0000274FFF0E49002FAF0A3F0A3F09002FC77
:1020F0007400F09002267401F0901800F07509FE4B
:102100007511FE75132075140075E80075A800D2CE
:10211000ECD2ADD2BCD2A8125B05C2C7900000E0E1
:10212000D2C7C2B5B4550B20C1081216FB20161237
:10213000803620C1331204549002F8E01232591252
:10214000287C9002F8E01232599002FE741EF012C0
:102150005B05120552C217120704E4C22A853E81AC
:10216000C2181205C702071C9002F8E012325990FB
:1021700002FE741EF09002FC7400F0120552903CB6
:10218000F81205CFE402171DC290D291C2C7900089
:102190000A7420F090000B7406F090000C7400F0AC
:1021A000D290D291D2C7220102040810204080129E
:1021B000297D7F2C1232BBD2D38AA0E208B800015D
:1021C0000AC2D3B431089021A7E993421D22B4304A
:1021D000099021A7E993F4521D220208DA120E9207
:1021E00012097FE95407C0E07F2C1232BB120F3C6A
:1021F000900210D0E0232582F58212220422903B27
:10220000870217B5EAF0A3E8F022D221020AC4122D
:102210002970E9B460004006903B870217B5900230
:10222000702470F582E4F022E552B5530122D20900
:10223000C083C082E5532323900400F582E0C0836D
:10224000C082900A80F0D082D083A3E0C083C08295
:10225000900A81F0D082D083A3E0900A82F09002AD
:10226000FEE0900A83F0757536756004D20CD0825A
:10227000D083C205C206D2DD30060A055353533F50
:10228000D20DC209223005F0C209D206220223383B
:10229000302D0B2011F7900220C22D020797302C11
:1022A0000B2011E9900222C22C020797302F0B203D
:1022B00011DB900224C22F02079730140B2011CD9E
:1022C000900AA2C21402079730300B20116A9002C4
:1022D00010C23002079730310B20115C900212C2FD
:1022E0003102079730320B20114E900214C2320295
:1022F000079730330B201140900216C23302079724
:1023000030340B201132900218C234020797303556
:102310000B20112490021AC23502079730360B2089
:10232000111690021CC23602079730370B20110895
:1023300090021EC2370207970207A91228CDE9B4FE
:1023400010004006903B870217B51244E522D2D315
:102350008AA0E2C2D3B4210DD2D308B800010AC2C8
:10236000D312233B221240BC54079021A793F9EBD0
:102370002470F582758302E049F012334422D2D3EF
:102380008AA0E2C2D3B4210DD2D308B800010AC298
:10239000D31223AF221240BC54079021A793F4F923
:1023A000EB2470F582758302E059F0123344221257
:1023B00028CDE9B410004006903B870217B51245BE
:1023C0000D221228CDE9B480004006903B87021709
:1023D000B5C0E0B51E00400304F51E7F2C1232BBD1
:1023E0001228CDD0E0FB547F23758305F582E030C1
:1023F000E70430E50B227480F0A3E970027401F069
:10240000850A838508828001A3E0B40DFB85830AD9
:10241000858208221228CDE9B480004006903B87CF
:102420000217B5547F23758305F582E4F022751AEF
:10243000007F00900500E51A547F23F582E030E725
:102440001520E5120582E0600414F070091582E0A1
:10245000E4D2E7D2E5F0051A0FEFB51ED67582007B
:10246000758303E030E72820E510C0E0AF82122436
:10247000BB8F82D0E0D2E5F08015541F146007D2E4
:10248000E7D2E5F08009E4F0AF821224978F82054D
:1024900082E582B56BCA22E58275F00884C0E0E56A
:1024A000F054079021A793F4F51AD0E02470F58238
:1024B000758302E0551AF075830322E58275F008F2
:1024C00084C0E0E5F054079021A793F51AD0E024EA
:1024D00070F582758302E0451AF075830322122895
:1024E000CDE975F00884C0E0E5F054079021A7938A
:1024F000F9D0E02470F582758302E0597002810002
:10250000221240BC54079021A793F9EB2470F58266
:10251000758302E05970028100221240BC5407907A
:1025200021A793F9EB2470F582758302E0596002CC
:102530008100221228CDE975F00884C0E0E5F0544E
:10254000079021A793F9D0E02470F582758302E00B
:102550005960028100221228CDE9B4800040069023
:102560003B870217B5547FC0E07F2C1232BB122884
:10257000CDD0E023758306F582E030E501220582A7
:10258000E004F0B501028002400615827420F022BA
:102590000224001228CDE9B480004006903B870257
:1025A00017B5547F23758306F582E4F00582F02287
:1025B0001228CDE9B480004006903B870217B5543D
:1025C0007FC0E07F2C1232BB1228CDD0E023758370
:1025D00006F5820582E0B50101220224001228CD11
:1025E000E9C0F075F00884C0E0E5F054079021A739
:1025F00093F9D0E0D0F02450758302F582E0596061
:1026000003022400E049F0221228CDE9C0F075F061
:102610000884C0E0E5F054079021A793F4F9D0E0D6
:10262000D0F02450F582758302E059F0221228CDB3
:10263000E9C0E0B56B00400304F56B7F2C1232BBA0
:102640001228CD900300D082E030E70122E9541F28
:1026500070027401D2E7F022900300E4E00582E505
:102660008270F822751D00C22EC215C211C22DC281
:102670002CC22F1030001031001032001033001027
:102680003400103500103600103700221240BC54C0
:10269000079021A793F9EB2470F582758302E05926
:1026A0006009F4F9E059F012334422E049F01233A2
:1026B000442222900270E4F005827490B582F720E3
:1026C0002AF0900271E0D2E2F022751E01751C7FA3
:1026D000E51C122423D51CF812242322751C7FE547
:1026E0001C1225A2D51CCF1225A222125C81E54620
:1026F000C0E0E545C0E075400075410075450075D6
:10270000460012354B1204667900F193F1B8745506
:10271000F1C61227D9091217A49002F8E012179DEA
:10272000F1C61227D9091217A49002F9E012179DD9
:10273000F1C61227D909EFF1C61227D909EEF1C661
:102740001227D909D0E0F1C61227D909D0E0F1C685
:102750001227D90943871075FF00E0F1C61227D967
:1027600009B9100E1227D11205C7F1ADF193F1B8D6
:102770007900A312166770DC7401F1C61227D9091B
:10278000B910F51227D11205C71228031205C70286
:10279000171F22743A1227FB74101227D9E5401232
:1027A00027D9E5411227D974001227D922E54124FF
:1027B00010F5417002054022754500E545241025BD
:1027C000402541F54522F546E5452546F545E546D2
:1027D00022E545F42401F1D922C0E0C4540F243588
:1027E00083F5993099FDC299D0E0C0E0540F2425BB
:1027F00083F5993099FDC299D0E022F5993099FD81
:10280000C2992290280A1205D1223A303030303055
:10281000303031464622303132333435363738396C
:102820004142434445461228401228351216671289
:102830005B0570F22208B800010A09B900010B22F9
:10284000C2C78BA0E3D2C78AA0F222C2C7900003FE
:10285000E0FFA3E0FED2C722C216125C81C2C7907D
:102860000005E0B5450BE4A3E0B54605D216D2C796
:1028700022D2C7C216903C690217B522C21612288E
:10288000BB30160122903C690217B5C216C2C79030
:102890000000E0D2C7B4550312289F1228BB2212B1
:1028A0005C81C2C7900005E0B5450BE4A3E0B546E6
:1028B00005D216D2C722D2C7C21622125C81900A54
:1028C000A0E0B545F1A3E0B546ECD21622850A8317
:1028D000850882E0B42003A380F9B44004D219A390
:1028E000E0B43A005004B43000B3B3500C85830A0E
:1028F000858208903B870217B5C39430B4030280E9
:10290000234002801F75F064A4F9A3E0B42003A360
:1029100080F9B43A005004B43000B3B3500C85834E
:102920000A858208903B870217B5C3943075F00A78
:10293000A4C33940EFF9A3E0B42003A380F9B43A6B
:10294000005004B43000B3B3500C85830A8582086C
:10295000903B870217B5C39430C33940C7F930198B
:102960000675A008E3C219F9A385830A85820822A7
:10297000850A838508827900C21902290B850A839A
:102980008508827900C2190229371228CDE9C0F0E2
:1029900075F00884C0E0E5F054079021A793F9F49E
:1029A000FBD0E0D0F07583022430F582E05970034B
:1029B000022400E05BF0221228CDE9C0F075F00897
:1029C00084C0E0E5F054079021A793F9D0E0D0F05F
:1029D0007583022430F582E049F02212297DE9B4A2
:1029E00008004006903B870217B5B40006903B876D
:1029F0000217B5900A93E0B50101220224001229C2
:102A000070E9B418004006903B870217B5900A920F
:102A1000E0B5010122022400122970E9B43C004013
:102A200006903B870217B5900A91E0B5010122029A
:102A30002400122970E9B43C004006903B8702173D
:102A4000B5900A90E0B5010122022400122970E934
:102A5000B40D004006903B870217B5B40006903BCA
:102A6000870217B5900A95E0B501012202240012F1
:102A70002970E9B420004006903B870217B5B400E6
:102A800006903B870217B5900A94E0B50101220237
:102A90002400200103022400122970E9B418004028
:102AA00006903B870217B5900A92E0B50157D2D342
:102AB0008AA0E208B800010AC2D3B42C0280030243
:102AC00008DA122970E9B43C004006903B870217EF
:102AD000B5900A91E0B5012DD2D38AA0E208B800E2
:102AE000010AC2D3B42C0280030208DA122970E969
:102AF000B43C004006903B870217B5900A90E0B5C1
:102B00000103C20122022400120E92C0017F2C1286
:102B100032BB120E92C0017F2C1232BB120E92C039
:102B2000017F2C1232BB120E92C0017F2C1232BBDD
:102B3000120E92C0017F2C1232BB120E92C0017F86
:102B40002C1232BB120E92C2E0A29092E0A291929D
:102B5000E1A2C792E2A2B592E3F54AC290D291C235
:102B6000C7C2B590000AE0548070FB900000E9F005
:102B7000900002D0E0F0900004D0E0F0900009D086
:102B8000E0F0900008D0E0F0900007D0E0F0900076
:102B900006D0E0F0E54AA2E09290A2E19291A2E292
:102BA00092C7A2E392B5202A01220207FA90000AF6
:102BB000E0548070FB227800B4640280024002740A
:102BC00063C3B40A0280024006C3940A0880F2C0BC
:102BD000E0E82430FD12063CD0E02430FD12063C33
:102BE00022022400D213120ED8B4410AD22875450D
:102BF00000120EE28011120F3CE8B414004006905F
:102C00003B870217B5F5457F2C1232BB120F3CE50E
:102C100045541FF990098075F003A42480F582E9DA
:102C2000D2E7F0A3021464E0C3754D08137B209132
:102C30004140067B30914180047B319141D54DEC80
:102C4000228B993099FDC29922C0E0780079007AF0
:102C5000007B00C3B4640280024006C39464088011
:102C6000F2C3B40A0280024006C3940A0980F2FA51
:102C7000743028FD12063C743029FD12063C743075
:102C80002AFD12063CD0E022900A93E0F9900A9ABD
:102C9000E0B50112122CFD122CCF1216DB22070612
:102CA000050403020100C3995009F434005407904D
:102CB0002C9E937A00F81214F2902D2B121473129A
:102CC00011FB122CCF1216DB122CFD1216EE227AFB
:102CD0000E78101214F2900A92E01214EF1211FB07
:102CE000743C1214EF900A91E01214EF1211FB12CF
:102CF00016EE900A90E01214EF1216EE227A0E7879
:102D0000101214F2900A99E01214EF1211FB743CA5
:102D10001214EF900A98E01214EF1211FB1216EE43
:102D2000900A97E01214EF1216EE22850000004080
:102D300086C290D291C2C7C2B5122BAD900009E0F5
:102D4000C0E0900008E0C0E0900007E0C0E0900024
:102D500006E0C0E0900004E0C0E0900002E0C0E0C7
:102D6000900000E0D290D291D2C7900A90F0A3D008
:102D7000E0F0A3D0E0F0A3D0E0F0A3D0E0F0A3D047
:102D8000E0F0A3D0E0F0D20122C290D291C2C7C23B
:102D9000B5122BAD900006E0C0E0900004E0C0E06A
:102DA000900002E0C0E0900000E0D290D291D2C743
:102DB000900A97F0A3D0E0F0A3D0E0F0A3D0E0F029
:102DC00022755664D556FD2275560AD556FD2275D4
:102DD000DB30D296D297D2AD75D84522022E88121A
:102DE0002970E920E4F620E5F320E6F020E7ED5431
:102DF0000F232460F82401FA7F2C1232BB12297DA4
:102E0000E95403F9C3E894602474FB30090122E912
:102E1000B4001D756002D20C122E8E900A89E0C09B
:102E2000E0900A88E09002708B82F0A3D0E0F0225C
:102E3000B4011D756002D20C9002708B82E0C0E07C
:102E4000A3E0900A81F0D0E0900A80F0122EBD221B
:102E5000B40229756001D20C122E8E122DC175603C
:102E600001D20C9002708B82E0900A80F0122EBD8D
:102E7000900A88E09002708B82A3F022B403097557
:102E80006010C20C122E8E22903B870217B5D20919
:102E9000D207C202C2038A75D2AFD2ADD2DD3002F0
:102EA00005C207C209223003F5C207122DCFC202A4
:102EB000C203C209C209903C820217B5228875C2BA
:102EC00005C206D2AFD2ADD2DD300605C206C209B8
:102ED000223005F5C206C205122DCFC209C20990E3
:102EE0003C820217B522D2D38AA0E2C2D3B4210B0E
:102EF000D2D308B800010AC2D38022E559900272E9
:102F0000F0E55A900273F0C290C29190000DE0A2D9
:102F1000E6D290D2919002AEE0B392E3F0900270CC
:102F2000E0D2C4D2C2D2C3D2C5A2E092C6C2C4D239
:102F3000C4D292C2C2C2C3C2C5A2E192C6C292D2D8
:102F400092D2C2C2C3A2E292C6D292C292D292D20C
:102F5000C4D2C3A2E392C6D2C4C2C4D2C4D2C2C233
:102F6000C3A2E492C6D2C4C2C4D2C4C2C2C2C3A263
:102F7000E592C6D2C4C2C4D2C4C2C2D2C3A2E6922F
:102F8000C6D2C4C2C4D2C4C2C2D2C3D2C5A2E792FE
:102F9000C6D2C4C2C4D2C4900271E054F3D2C4D227
:102FA000C2C2C3D2C5A2E092C6D2C4C2C4D2C4C2F5
:102FB000C2D2C5A2E192C6D2C4C2C4D2C4D292C205
:102FC000C2D2C5A2E592C6C292D292D2C2D2C5A244
:102FD000E692C6C292D292C2C2D2C3D2C5A2E79230
:102FE000C6C292D292D2C2C2C5A2E492C6C292D244
:102FF0009222C3E55295535003F43400B43E00408E
:1030000006903CA50217B5D2D38AA0E208B8000109
:103010000AC2D3C39441500479008008540F903001
:10302000EB93F54DD2D38AA0E208B800010AC2D3CF
:10303000B42C0280030208DA122970E9B400057585
:103040004EFF8016B411004006903B870217B5C3AF
:103050009401540F9030FB93F54ED2D38AA0E2082E
:10306000B800010AC2D3B42C0280030208DA122984
:1030700070E9B40F004006903B870217B5540F90DB
:10308000310B93F54FD2D38AA0E2C2D3B42C1CD219
:10309000D308B800010AC2D3B42C0280030208DAB4
:1030A00012297DE9B40006790180027901302A1FD6
:1030B000900A80E54DF0A3E54EF0A3E54FF0A37430
:1030C0000AF0757536756004D20CD2AFD2DD22904D
:1030D0000400E5522323F582E54DF0A3E54EF0A36D
:1030E000E54FF0055253523FD9E52260E020A01091
:1030F0009050D070F030B0008040C060E020A01050
:103100009050D070F030B0008040C0382818084887
:1031100058688898D8E8F8000000000607040508F9
:10312000090A0B0E0F0C0D00010203060704050827
:10313000090A0B0E0F0C0D000102031C14181012CB
:103140001A161E11191B171F0000001228CDE99036
:1031500002FEF0300903022400D209C202C2037544
:103160007537756004D20CD2AFD2ADD2DD30021506
:10317000900A88E0F568900A89E0F569900A8AE08B
:10318000F56AC209223003E57568FF7569FF756A43
:10319000FF122DCFC202C203C20922D2D38AA0E2FB
:1031A00008B800010AC2D3C39441500479008008D2
:1031B000540F90311B93F545D2D38AA0E208B80092
:1031C000010AC2D3B42C0280030208DA122970E982
:1031D000B400057546FF8016B411004006903B8789
:1031E0000217B5C39401540F90312B93F546D2D3F7
:1031F0008AA0E208B800010AC2D3B42C02800302FC
:1032000008DA122970E9B40F004006903B870217D4
:10321000B5540F90313B93F547E568B5450BE5692B
:10322000B54606E56AB54701220224000000000009
:1032300000000000000012323C025618900271E0BB
:10324000C2E3F0C2C2D2C3C2C5D292C2C6C292D237
:1032500092C213C2282202597C9002F8E0B40108FD
:10326000758D4053877F804EB4020853877F758DDC
:10327000D08043B4030853877F758DE88038B40449
:103280000853877F758DF4802DB4050853877F75AB
:103290008DFA8022B40608438780758DFA8017B4B2
:1032A0000708438780758DFD800C53877F758DFAE5
:1032B000903B870217B59002F8F022D2D38AA0E2A1
:1032C00008B800010AC2D3B50701220208DA125574
:1032D00002125A892212129AAA0FA80E1214F2ABE5
:1032E0000FA90E22D2D38AA0E2C2D3B42518D2D31A
:1032F00008B800010AC2D37F2C1232BB120F3C90D7
:10330000022212220422B42318D2D308B800010AE0
:10331000C2D37F2C1232BB120F3C90022412220423
:1033200022120F3C90022012220422754F64C28C9C
:10333000125B05758CE7758AF0C28DD28C308DFDDD
:10334000D54FEB22C0D0F4C0E0E582B4B000400518
:10335000D0E0D0D022C375830A2440F582D0E0F0BB
:10336000C0E0758300E58294A0F582F545D0E0F4D5
:10337000C290C2C7F0D290D2C7D0D022A3E4F0E569
:103380008330E003125B05EBB583F1E9B582ED22F2
:10340000D44558494F00D54C494F00D652455449F0
:1034100000D752544300D84441544500D954494D33
:103420004500DA434F4D494E5400DB43494300DC2D
:10343000504C5200DD44494300DE434C5700DF53FB
:10344000544F50000241445200034845584F5554D0
:1034500000044C4743000543414C4C00065853427E
:103460000007534843500008524843500009484958
:103470004D454D000A4D4F5645000B4543484F0002
:103480000C5343484544554C45000E494943000FF1
:10349000454550524F4D0010444C59001152535461
:1034A000001258494C001258494F0013584948001F
:1034B0001358494300144354550015435452001601
:1034C000464C465000175741524D424F4F5400183A
:1034D0004A4D5000194C424C001A58444159001BA7
:1034E000584852001C584D494E001D585345430042
:0D34F0001E50554C5345001F58484D53FFCA
:103500002DDF2EE6220A399C3A68384332E457858B
:10351000314B21AF220F07FD12097FB4CE030235D4
:1035200045B4CD06C9F4F5FCC922B4CF06C9F4F5FB
:10353000FDC922B4C70389B822B4C80389A822B43C
:10354000C90389E822903B6B0217B5120472A37B72
:10355000207900C3E58299FEE5839BFF22E558D2DE
:0B356000E0F55822E558C2E0F55822C3
:1035F00002644F02645902649B0264DD02650802A2
:10360000652E02355D02356402655A02667F0268E6
:1036100050026A01026EC9026EE4026EFF026F047C
:09362000026F09026FC20270DBA7
:103800003840384040AA44DE70BF40B03F654300B6
:10381000664A510C572B5DF05EDF3840404B3E6DE1
:1038200023C22414251A250125562593268C190018
:1038300029B7298A29DB29FE2A182A32262D2A921D
:103840000208A7123976C2E0A29092E0A29192E11A
:10385000A2C792E2A2B592E3F54AC290D291C2C742
:10386000C2B5122BAD900000E0C0E0900002E0C0B5
:10387000E0900004E0C0E0E54AA2E09290A2E1926C
:1038800091A2E292C7A2E392B5D290D291D2C7C2DE
:10389000B5202A02D208D0E0122BB67D3A12063C9F
:1038A000D0E0122BB67D3A12063CD0E0122BB612B5
:1038B0003992020C23122664C22EC298C083C082A1
:1038C000900B0012585C900C0012585C900D001286
:0738D000585CD082D0832276
:1039000013F7137611FB16EE145F16DB14D814C4EC
:1039100014CD13EC1430143C14401436142B141A28
:1039200013DA13B813E014D611B8121B11BC12D855
:1039300013F81372122B130B140C141414BF144627
:1039400014E916CE16E11000166F16EA56C45AAEE8
:103950005AB35AB856C456C456C4523556BF523BD1
:1039600056C40F4F167814F715CD10C50D7E0ED81E
:103970000EE006D0071C120BD7D2D38AA0E2C2D326
:10398000B43B0CD2D308B800010AC2D3C20A22D277
:103990000A22100A01221205C780FA22123976C2C1
:1039A00090D291C2C7122BAD900000E0C0E0900011
:1039B00002E0C0E0900004E0C0E0900009E0C0E058
:1039C000900008E0C0E0900007E0C0E0900006E052
:1039D0005407700104D290D291D2C7202A02D20893
:1039E000B40108903AD31205D18042B40208903A4B
:1039F000DB1205D18037B40308903AE31205D18079
:103A00002CB40408903AEB1205D18021B40508903B
:103A10003AF31205D18016B40608903AFB1205D18C
:103A2000800BB40708903B031205D18000D0E01250
:103A30002BB67D2D12063CD0E0122BB67D2D120642
:103A40003CD0E0122BB612063AD0E0122BB67D3AEB
:103A500012063CD0E0122BB67D3A12063CD0E012A2
:103A60002BB6123992020C23123976C290D291C22F
:103A7000C7122BAD900009E0C0E0900008E0C0E064
:103A8000900007E0C0E0D290D291D2C7202A02D2A3
:103A900008D0E0122BB67D2D12063CD0E0122BB6DA
:103AA0007D2D12063CD0E0122BB6123992020C2367
:103AB0001228CDE9F5FE221205C7020C23D2D38AC3
:103AC000A0E2C2D3B43BF0D2D308B800010AC2D3FB
:103AD000020C2353554E20222222224D4F4E2022EB
:103AE0002222225455455320222222574544202287
:103AF0002222225448555220222222465249202274
:103B000022222253415420222222224552524F5235
:103B10002022222A205352414D2050524F475241D9
:103B20004D20434845434B53554D20564552494639
:103B3000494553202D204F4B202A222A2053524101
:103B40004D2050524F4752414D20434845434B531F
:103B5000554D204641494C4544202D2052554E207C
:103B600041424F5254454420212A22804241442060
:103B700053594E54415822814449564944452042A4
:103B800059205A45524F22824241442041524755C2
:103B90004D454E5422834D454D4F525920414C4C7A
:103BA0004F434154494F4E22844152524159205370
:103BB000495A45228541524954482E20554E444584
:103BC00052464C4F572286494E56414C4944204C50
:103BD000494E45204E554D42455222874152495447
:103BE000482E204F564552464C4F5722884E4F2064
:103BF00044415441228943414E4E4F5420434F4E3D
:103C000054494E5545228A494E5445524E414C2006
:103C1000535441434B228B45585452412049474EFF
:103C20004F524544228C415247554D454E542053E6
:103C30005441434B228D434F4E54524F4C205354CA
:103C400041434B228E50524F4752414D20494E2006
:103C50005352414D204D454D4F525920495320500C
:103C6000524F544543544544228F50524F4752417E
:103C70004D20434845434B53554D204641494C4503
:103C8000442290455850414E53494F4E20492F4FA2
:103C900020434F4D4D554E49434154494F4E2045C9
:103CA00052524F522291504F574552204C494E4547
:103CB000205452414E534D495353494F4E20425583
:103CC000464645522046554C4C2292454550524F4F
:103CD0004D20434F4D4D554E49434154494F4E2081
:103CE0004552524F522293494E505554204441540C
:103CF00041204552524F52222A20534335353245F6
:103D0000532056312E36382028432931393939206D
:103D100053594C564120436F6E74726F6C20537927
:103D20007374656D7320496E632E202A22455252AA
:103D30004F5220434F44452022203A202022D29047
:103D4000D291C2C7C2B5900001E0C0E0900002E08D
:103D5000D290D291D2C7C2B59002F9F0D0E09002D1
:103D6000F8F022903E341205D11205C790FFFF7B78
:103D70007F79FF7A007800A3E49328F8E43AFAEB1D
:103D8000B583F4E9B582F0903E011205D11248AF37
:103D9000903E4D1205D1C2B590FFFF7BFF79FFA386
:103DA0007455F0E0B4554A74AAF0E0B4AA43E4F0C4
:103DB000EBB583EBE9B582E7D2B590FFFF7BFF79E6
:103DC000FFA37455F0E0B4552874AAF0E0B4AA211A
:103DD000E4F0EBB583EBE9B582E7C2B5903E111292
:103DE00005D11205C71205C77401902000F0025BCF
:103DF0001AC2B5AA83A882903E241205D11248AFF8
:103E000022524F4D20436865636B73756D203D20D2
:103E100022283132384B29206F66205352414D20E1
:103E20004F4B202252414D204661696C75726520CE
:103E30006174202243616C63756C6174696E6720E4
:103E4000524F4D20636865636B73756D22546573C3
:103E500074696E6720616C6C205352414D206C6F09
:103E6000636174696F6E730D0A220217B5120E92A8
:103E7000F54530E0717F2C120CFA120E92F5467F58
:103E80002C120CFA2009FDC2AD75D843D2DD30DB0F
:103E9000FDC2DD7408F157E545C2E0F5DAC2DB305A
:103EA000DBFD7418F1578546DAC2DB30DBFD742880
:103EB000F157D2DDC2DB30DBFDC2DD7410F1578576
:103EC00045DAC2DB30DBFD7440F157C2DB30DBFD8D
:103ED0007458F157D2DCE5DAC2DB1214EF120F0C82
:103EE000120FF7D2AD227F2C120CFA120E92F54669
:103EF0007F2C120CFA120E92F5472009FDC2AD7507
:103F0000D843D2DD30DBFDC2DD7408F1578545DAD8
:103F1000C2DB30DBFD7418F1578546DAC2DB30DBDB
:103F2000FD7428F1578547DAC2DB30DBFD7428F1D8
:103F300057D2DCC2DB79FFD9FE75D843D2DD30DB46
:103F4000FDC2DD75DAA0C2DB30DBFD7418B5D9E542
:103F5000D2DCC2DBD2AD22B5D90122D2DCC2DB90E9
:103F60003CCA0217B5C2D1D2D38AA0E2C2D3B445AB
:103F700011D2D308B800010AC2D3D2D18002C2D173
:103F80008012B4530FD2D308B800010AC2D3125919
:103F900014025D54125914120ECA40478B458946CB
:103FA000E57C20E40620E50820E60A900B00800A64
:103FB000900C008005900D008000AF3FC2D3C2D4AA
:103FC000E0FD8BA0E3B40D028006B5055BB40D09DE
:103FD00020D10122EDB40D5022A309B900010BDF5D
:103FE000DF8045E57C20E40620E50820E60A900B0A
:103FF00000800A900C008005900D008000D2D38ACA
:10400000A0E2C2D3B42224124031B4221330D1042E
:10401000E0B40D14C2D1D2D308B800010AC2D32231
:10402000FFE0B50703A380DF022400903B6B02177B
:10403000B5D2D308B800010A8AA0E2C2D322900BFD
:1040400000E07006A3E582B404F722120E92F54553
:1040500030E02C7F2C120CFA120E92B42100400694
:10406000903B870217B5147002D204F56030090145
:1040700022C20CC206854575D2ADD2AFD2DD227FF9
:104080002C120CFA120E926005B421004006903BEF
:10409000870217B5F56030090122C20C854575D23B
:1040A000ADD2AFD2DD2222222222120E92F5DB22E5
:1040B000120F3C1240BA53D0E722E473850A83857D
:1040C0000882E0B42003A380F9E0FCA3E0FDA3E0B4
:1040D000FEA385830A8582087A007800ECC39430B9
:1040E00075F064A4C0E0E5F02AFAD0E028F85001A9
:1040F0000AEDC3943075F00AA428F850010AEEC303
:10410000943028F850010AEAB403004006903B8737
:104110000217B5B401027A20B402027A40E875F0C1
:0B4120000884FBE5F0F9EB2AFBE92224
:10430000120BD7120E92E9F5457F2C120CFA120E01
:1043100092E9F54DB421004006903B870217B57F26
:104320002C120CFA120E92E9F546EBF5477F2C128F
:104330000CFA120E92E9F54EEBF54F755F007423FF
:10434000FD1243AF12063CE5451243B87457FD1207
:1043500043AF12063C744CFD1243AF12063CE54DD0
:104360001243B8E54FFD1243B8E54E1243B8AB47D0
:10437000A9468BA0E3FD1243B8125367D54DF3E570
:104380005FF41243D87D0D12063CE57C5403B40063
:1043900008D2AC200B02D29922B4020712554C531A
:1043A0007CF022B40108D2B41255AD537CF022C087
:1043B000E0255FF55FD0E022C0E0C4540F9043F2E7
:1043C00093FD1243AF12063CD0E0540F9043F2939A
:1043D000FD1243AF12063C22C0E0C4540F9043F2DA
:1043E00093FD12063CD0E0540F9043F293FD120669
:1043F0003C22303132333435363738394142434448
:104400004546125914122970E9F87F2C120CFA1241
:104410002970E9B440004006903B870217B5FA7F47
:104420002C120CFA122970E9B440004006903B8728
:104430000217B5F9E57C547020E41220E50520E66A
:1044400007800D900C008008900D008003900B00F9
:10445000E07006A3E582B404F7AD82755F00E071F9
:10446000AFB4213F91A671AFB50038A3E071AFB4EE
:104470003A3191A671AFB5022AA3E071AFB43A23E5
:1044800091A671AFFDA3E071AFB43A17E55FF4F503
:104490005F91A6B55F0DE9543F9002702470F582DC
:1044A000EDF022022400A3E091B2C4FBA3E091B29C
:1044B0004B22B43000401EB43A00401EB4410040CC
:1044C00014B447004011B46100400AB467005005BD
:1044D000C3942780058006C39407C3943022D22258
:1044E000D229020C1F23541FD39044ED73A135A190
:1044F0004EA167A180A199A1B4A1CDA1E6A1FFC160
:1045000018C19DC197C17EC133C14CC16523541FE1
:10451000C390451573A135A14EA167A180A199A1B2
:10452000B4A1CDA1E6A1FFC118C19DC197C17EC1B3
:1045300033C14CC165900270E092E0F0123344D276
:10454000C4D2C2D2C3D2C592C6C2C4D2C4229002BF
:1045500070E092E1F0123344D292C2C2C2C3C2C52B
:1045600092C6C292D29222900270E092E2F012338E
:1045700044D292D2C2C2C3C2C592C6C292D29222C1
:10458000900270E092E3F0123344D2C4D2C2D2C39C
:10459000C2C592C6C2C4D2C422900270E092E4F0B6
:1045A000123344D2C4D2C2C2C3C2C592C6D2C4C29C
:1045B000C4D2C422900270E092E5F0123344D2C417
:1045C000C2C2C2C3C2C592C6C2C4D2C422900270C3
:1045D000E092E6F0123344D2C4C2C2D2C3C2C59242
:1045E000C6C2C4D2C422900270E092E7F0123344F3
:1045F000D2C4C2C2D2C3D2C592C6C2C4D2C422904F
:104600000271E092E0F0123344D2C4D2C2C2C3D2EB
:10461000C592C6C2C4D2C422900271E092E1F012E7
:104620003344D2C4C2C2C2C3D2C592C6D2C4C2C469
:10463000D2C422900271E092E5F0123344D292C2C9
:10464000C2C2C3D2C592C6C292D29222900271E077
:1046500092E6F0123344D292D2C2C2C3D2C592C6FD
:10466000C292D29222900271E092E7F0123344D2C9
:1046700092C2C2D2C3D2C592C6C292D29222900234
:1046800071E092E4F0123344D292D2C2D2C3C2C5D6
:1046900092C6C292D29222903B870217B5903B8776
:1046A0000217B5900B0002585CC083C082900700CF
:1046B000855B827420F0055BD082D08322024700A4
:10470000C2AFC213120E9212097F89457F2C120C80
:10471000FA120E928B4689471247A97A00A84512D1
:1047200014F21211FBAA46A8471214F21216EE7ADE
:10473000FF78FF1214F212144012126E74FFB503C8
:104740005CB501591216CE7A0078041214F21247A1
:10475000A97A0078401214F21247D61216EE1216F9
:10476000EE1211FB12141A12126E74FFB50334B557
:10477000013112166F1216CE1216DB12126E09B923
:1047800000010B8B4D894E904C461205D112481CEE
:104790001248BB12492A904C671205D1229065F04D
:1047A0000217B59065C00217B59020007B00790014
:1047B000E0142582F58250020583E0B40D1209B998
:1047C00000010BA3E0B401E8EBFAE9F81214F222BD
:1047D0009065AA0217B59020007B007900A3A3A3DF
:1047E000E0FFB40D07A3E0B401F3801CC083C082D6
:1047F000904810E493A3B5070509B900010BB4FF75
:10480000F2D082D083A380D8EBFAE9F81214F22216
:10481000838D91989FDA17A5A899FFFFAB46A9470A
:10482000AA4DA84E902000E0FD1DA31DE012487B7C
:10483000A31DE012487BEB12487BE912487B12482B
:10484000A7ED2582F58250020583E0B40D0AA3E0AE
:10485000B401D48A4888492290485E0217B5932053
:1048600020464154414C204552524F5220494E203F
:104870004C494E45205441424C4522C083C0828A57
:10488000838882F0A3AA83A882D082D0832208B82A
:1048900000010A22C083C0828A838882E0A3AA839F
:1048A000A882D082D08322E54529F950010B22EA63
:1048B0001227D9E81227D91205C722AA4DA84E906F
:1048C0002000E0FD1DA31D12488E12488E12489450
:1048D000F0A31D124894F0ED2582F5825002058365
:1048E000E0B40D10A3E0B401D9E548B50206E549EE
:1048F000B50001229048FA0217B593464154414C45
:10490000204552524F5220494E204C494E4520528C
:1049100045504C4143494E47202D2052454C4F4174
:10492000442050524F4752414D2290200085834BE6
:1049300085824CE0F545A3E0F546A3E0F547A3E00A
:10494000B40D06A3E0B401E52212498E50F01249DD
:10495000B21249CA124A0712495C80E490FF00E093
:1049600014854B83854C822582F58250020583E0B5
:10497000227BFF79807A007804AF451215A81215C2
:1049800085DFF8900005740BF0A374B8F022C083A3
:10499000C082C0E0F507904810E493A3B50708D3A0
:1049A000D0E0D082D08322B4FFEFC3D0E0D082D059
:1049B00083227BFF79007AFF78807E50740D8BA074
:1049C000F38AA0F2121585DEF522AB4BA94C7AFFD3
:1049D0007880AE458BA0E38AA0F2121585DEF52221
:1049E000854B83854C827F0DA3A3A3E0B507FB22F3
:1049F00009B900010B2208B800010A228AA0F212AC
:104A000049F68A4088412290FF80E090FF00F090B4
:104A1000FF81E090FF01F090FF82E090FF02F07ACA
:104A2000FF780390FF83E0F50FA31249FC12498E33
:104A3000504CC0E0124AE4D0E0E50FB4A50BC3E04F
:104A40001218E7E50F40105035B4A80BC3E0121858
:104A5000E7E50F40025027121985C083C082124B30
:104A6000ABAB40A941121983AA03A8018A4088412F
:104A7000D082D083E0B42C061249FCA380D9E0B4E4
:104A80000DA4124B78E50DB5450280054014800851
:104A900022124B3E124AD722124B54124B3E124A5C
:104AA000D722124AAC124B3E124AD722120496E584
:104AB0000DAA4BA84C28F850010AAB4BA94CE54570
:104AC00029F950010B1215A8121585EBB583F6E9EB
:104AD000B582F21215A82290FF001210C8121051D0
:104AE0001210B922E50FB4DA04124B1822B48D0467
:104AF000124B0922B49104124B0922B49804124BB0
:104B00000922B49903124B2722E0B42C051249FC68
:104B1000A3221249FCA380F1E0B42504124B092220
:104B2000B42303124B0922E0B483051249FCA322EB
:104B3000B49F051249FCA3221249FCA380E990FF0F
:104B400000E0FF7BFF7900AA4BA84C1215A81215B4
:104B500085DFF822120496AB83A982AA83A882C3B8
:104B6000E50D954528F850010A1215A812159DEB80
:104B7000B54BF6E9B54CF222C083C082C0E07F009D
:104B800090FF00A30FA30FA30FE0A30FB40DFA90A3
:104B9000FF00EFF50DF0D0E0D082D08322AB40A92A
:104BA000418BA0E31249F0B40DF722AB4DA94E8A18
:104BB0000788068BA0E3B507181249F08BA0E3B570
:104BC00006121249F08BA0E3FA1249F08BA0E3F829
:104BD000221249F01249F01249F01249F0EBB5489F
:104BE000D2E9B549CE904BEB0217B594202046414F
:104BF00054414C204552524F52202D204E4F204CB4
:104C0000494E4520464F554E44202D2052454C4F8D
:104C100041442050524F4752414D2122C38B0289BB
:104C2000018AA0E2B4FF1D1249F68AA0E2B4FF1483
:104C30001249F68AA0E2B4FF0B1249F68AA0E2B448
:104C4000FF02D322C322075374617274696E672016
:104C5000746F2052452D4E554D4245522070726F53
:104C60006772616D0D0A22070750726F6772616D7E
:104C70002052452D4E554D42455220636F6D706C4C
:104C800065746520210D0A227F007A007800120EDB
:104C9000ADE01218E750040FA380F6120EADBF0569
:104CA00002801ABF04028026BF03028041BF0202B5
:104CB0008057BF01028065903B870217B5E0C3941F
:104CC0003075F028A4F5F074FAA4AAF0F8A3E0C3B4
:104CD000943075F004A4F5F074FAA4C0E0E5F02A6D
:104CE000FAD0E028F850060ABA000280CAA3E0C34E
:104CF000943075F064A4C0E0E5F02AFAD0E028F81A
:104D000050060ABA000280AFA3E0C3943075F00ADF
:104D1000A428F850060ABA0002809CA3E0C394308D
:104D200028F850060ABA0002808DA3120EC38A83A7
:104D300088821253D9020F23D290D291C2C7C2B532
:104D400090555574AAF0902AAA7455F09055557450
:104D5000F0F0900000E022C2B5124DFE9000007409
:104D600030F022C2B5124DFE9000007430F0904039
:104D7000007430F022C2B5124DFE9000007430F085
:104D80009040007430F09080007430F022C2B51270
:104D90004DFE9000007430F09040007430F0908030
:104DA000007430F090C0007430F022124DFED2B585
:104DB0009000007430F022124DFED2B59040007485
:104DC00030F022124DFED2B59080007430F022D225
:104DD00090D291C2C7C2B590555574AAF0902AAA34
:104DE0007455F09055557480F090555574AAF09014
:104DF0002AAA7455F0D2B590C0007430F022D29037
:104E0000D291C2C7C2B590555574AAF0902AAA741F
:104E100055F09055557480F090555574AAF0902A2D
:104E2000AA7455F022C2AFC21CC21AC2089050CC5C
:104E30001205D1124D8D124FA2D290D291D2C7C27B
:104E4000B5124FCD22C2AFC2089050CC1205D1127C
:104E50004D8D124FA2D290D291D2C7C2B522C208B4
:104E60007F2C120CFA120E92E9B404004006903B1B
:104E7000870217B5C2AF9050CC1205D1B900081205
:104E80004DAB124FA28027B90108124DB7124FA2A5
:104E9000801CB90208124DC3124FA28011B9030839
:104EA000124DCF124FA28006903B870217B5D290C9
:104EB000D291D2C7C2B522E88B838982F54FD290B6
:104EC000D291C2C7201A02C2B5C0E0E0B4FF04D03C
:104ED000E08005D0E0024F15C0E0C083C08290554D
:104EE0005574AAF0902AAA7455F090555574A0F004
:104EF000D082D083D0E0F0F54FE0C0E05480534F33
:104F000080B54F04D0E0801DD0E030E5ECE0548067
:104F1000B54F028010C21AD290D291D2C7C2B590BA
:104F2000506E0217B5D290D291D2C7C2B5227C0082
:104F30007D00D290D291C2C7C2B590FFFFA3E0B46A
:104F4000FF2AE583B4FFF6E582B4FFF1C322D2B5B0
:104F500090FFFFA3E0B4FF14E583B4FFF6E582B44D
:104F6000FFF1C3D290D291D2C7C2B522D3D290D290
:104F700091D2C7C2B522D290D291C2C7C2B59055C4
:104F80005574AAF0902AAA7455F09055557480F083
:104F900090555574AAF0902AAA7455F090555574FE
:104FA00010F0125B02E020E71530E5F6E020E70E96
:104FB000D290D291D2C7C2B590506E0217B5D2909E
:104FC000D291D2C7C2B59050521205D1227B00793E
:104FD000007855124EB71249F09002F8E0F8124EE0
:104FE000B71249F09002F9E0F8124EB71249F08B6F
:104FF000408941125C81E546C0E0E545C0E01235DC
:105000004BAB40A941EFF8124EB71249F0EEF8123F
:105010004EB71249F0D0E0F8124EB71249F0D0E086
:10502000F8124EB71249F0902000125B02E0F8C06F
:1050300083C082124EB7D082D0831249F0A31216D9
:105040006770E77801124EB71249F0905099120537
:10505000D1220D0A536563746F722873292045723B
:1050600061736520436F6D706C657465642295464D
:105070004C415348204D454D4F5259202D20505200
:105080004F4752414D206F722045524153452046B3
:1050900041494C555245202122070D0A42415349AE
:1050A000432050726F6772616D2068617320626582
:1050B000656E20534156454420746F20464C415341
:1050C00048206D656D6F7279210D0A22576F726BE2
:1050D000696E6720210D0A22301C04D2B58007308A
:1050E0001A04D2B5C2C78BA0E3C2B5D2C70214EF6F
:1050F000301C04D2B5800F301A0CD2B5C2C7124E84
:10510000B8C2B5D2C7228BA0F3C2B522C21CC21A44
:10511000D2D38AA0E2C2D3B4462DD2D308B80001BC
:105120000AC2D37F2C120CFAD2D38AA0E208B800AC
:10513000010AC2D3B43105D21AC21C22B43005C24E
:105140001AC21C220208DAD2D38AA0E208B80001EF
:105150000AC2D3B43105C21AD21C22B43005C21C13
:10516000C21A220208DA120E92120DC6121256D27A
:10517000207C06201C0F201A1C8AA0E28BA0F312B0
:10518000159DDCF522D2B58AA0E2C2B58BA0F31240
:10519000159DDCF122D2B5C2C78AA0E2C2B5D2C742
:1051A0008BA0F312159DDCED22120E9212129A7C46
:1051B00006D290D291D2C7C2B58AA0E2301C04D2E6
:1051C000B58014301A11D2B5C2C7124EB812159D4F
:1051D000DCDFC2B5D2C7228BA0F312159DDCD2C290
:1051E000B5D2C722FBD2E3F5C50000E5C530E4FB2C
:1051F00075F00053C5C785C64FE5C6A2E792F1A278
:10520000E692F0AAF02323C2E0C2E1F5F0E5C5750D
:10521000C500A2E792F1A2E692F0A8F088508A5168
:10522000900200EB23F582EAF0A3E8F00214F28B7F
:10523000A0E30214EFE5FCF40214EFE5FDF4021420
:10524000EFD290D291D2C7C2B5C2AF902000E0B4E5
:10525000010122C22A7B107900C2AFA3A3A3E0F50B
:1052600047B40D18125B05A3E0B401EF8B8389826C
:1052700074FFF0A3F0A3F0A3F0D22A22B4010280BD
:10528000EBC083C082125295D082D08343871075C1
:10529000FF00A380C9125B05E547B48305A3125341
:1052A0006D22E547B48D08A31253C112536D22E558
:1052B00047B49108A31253C112536D22E547B49825
:1052C00008A31253C112536D22E547B49F05A312E0
:1052D000536D22E547B4DA08A31253CA12536D2264
:1052E000E547B41705A312536D22E547B4A51DA3E6
:1052F000E01218E7500412536D22B48306A3E012A3
:10530000536D22B49F06A3E012536D22E547B4A863
:105310001EA3E01218E7500412536D22B48306A3B3
:10532000E012536D22B49F07A3E012536D2222E5D1
:1053300047B499FA12535BA3E01218E750041253D2
:105340006DA3E0B40D041204AF22B43A041204AF0A
:1053500022B42C0380E1221204AF22E0B4830122A4
:10536000B49F0122A380F409B900010B2285830AAE
:105370008582088B4D894E121985AB83A98219BB92
:10538000FF011B8B838982858345858246AB4DA9AE
:105390004EEA8BA0F3125367E88BA0F31253671207
:1053A0000A7CE5838BA0F3125367E5828BA0F3128E
:1053B0005367AA83A882AA03A801854682854583EC
:1053C00022E0B42C02A322A380F7E0B425041253F8
:1053D000C122B423031253C122901000E0B5021081
:1053E000A3E0B5000CA3E0C0E0A3E0F582D08322E7
:1053F000A3A3A3A3E583B418E3903BC60217B5EAC1
:105400001227D9E81227D97D2012063C22C0E0C01D
:1054100083C082C2E0A29092E0A29192E1A2C792E0
:10542000E2A2B592E3C0E0C290C291D2C79000055B
:10543000E0F57E20E52FE57E20E125E57E20E02ACF
:10544000E57E20E42AD0E0A2E09290A2E19291A22F
:10545000E292C7A2E392B5D082D083D0E0D0D0321E
:1054600012562D80D612566B80CC1255A680D112C2
:10547000554580D1C290C291D2C7C2B5125495127F
:1054800054BD90000474F0F090000D740FF0D290B1
:10549000D291D2C72290000274B0F090000074C084
:1054A000F09000027410F09000007413F07407F094
:1054B00090000174BBF09000027405F02290000A85
:1054C00074B0F090000874C0F090000A7410F0906E
:1054D000000DE030E2169000087493F07417F0901D
:1054E000000974BBF090000A7485F02290000874E3
:1054F00013F07407F090000974BBF090000A740573
:10550000F022900270E4F0A3F0122EE61255102261
:10551000202805201302800122D292D2C2D2C3D207
:10552000C5C2C6C292D292C0E0C083C0829002714E
:10553000E0C2E2F0D082D083D0E022C2AC757C0021
:10554000C298C29922E578B579028029C290C291A9
:10555000900009E020E215C290C291900005E57D1F
:10556000D2E4F57DF0D2A8D290D29122D290D291FD
:10557000E578B5791AC290C291900005E57DC2E444
:10558000F57DF0D290D2919002AEE0C2E5F022908B
:105590000F00857982E00579C290C29190000BF0EE
:1055A000D290D29180A6E576B577028029C290C2CA
:1055B00091900001E020E215C290C291900005E5B3
:1055C0007DD2E0F57DF0D2A8D290D29122D290D2B5
:1055D00091E576B57715C290C291900005E57DC240
:1055E000E0F57DF0D290D291D20E22900E00857718
:1055F00082E00577C290C291900003F0D290D291E0
:1056000080AB3093109002FCE0B4550302054A9041
:105610003C440217B502054A900980E4F0A374F3F4
:10562000B582F89002FDE4F0C228C21322C290C2F3
:1056300091900003E0D290D291900D008566822077
:105640002F19301E16B40A028011B57A0B7400B5FA
:105650006602805BD22FE57AF00566C290C2919017
:105660000001E020E0C7D290D29122C290C2919076
:10567000000BE0126BB45002C2E730260FC0E0907E
:105680000005E0C2E4F0D0E090000BF0D290D2919F
:10569000900C00856782301B16B40A028011B57B1E
:1056A0000B7400B567028007D22CE57BF00567C25A
:1056B00090C291900009E020E0B1D290D29122E511
:1056C0005A0214EFD2D38AA0E2C2D3D2D308B800D0
:1056D000010AC2D3943054070251E4120ED8B42503
:1056E00020120ED6E57CC2E0D2E1D2E2F57CC29077
:1056F000C2919000057400F0D290D291D2C7D2AF7F
:1057000022E57CC2E0C2E1C2E2F57C223000051253
:105710005E4B80F8C290C291900009E030E2FC90AC
:10572000000BEDF0D290D291D2C722120F4F12127D
:105730006EC003C0017F2C120CFA120F4F12126EB2
:10574000C003C0017F2C120CFA120F4F12126EAE62
:10575000017F00D000D002D001D0038BA0E3301C29
:1057600004D2B58010301A0DD2B5C2C78A838882A0
:10577000124EBC80038AA0F2C2B5D2C712158512A0
:10578000166770D722D2D38AA0E2C2D3B4250DD235
:10579000D308B800010AC2D31257D422B4230DD2C1
:1057A000D308B800010AC2D312581B221257B022E4
:1057B000D2D38AA0E208B800010AC2D3B4310BD216
:1057C0002ED2AC7554001246A322B43003C22E224E
:1057D0000208DA227F2C120CFAD2D38AA0E208B88F
:1057E00000010AC2D3B43122900C0012585C7567D4
:1057F00000C22CD21BC290C291900005E57DD2E57B
:10580000F57DF0D290D291D2A822B43008C22CC239
:105810001B75670022903B870217B57F2C120CFA8C
:10582000D2D38AA0E208B800010AC2D3B4312290D0
:105830000D0012585C756600C22FD21EC290C29134
:10584000900005E57DD2E1F57DF0D290D291D2A80D
:1058500022B430C1C22FC21E7566002275820015A7
:1058600082E4F0E582B400F722125914E57C54700A
:1058700020E40620E50B20E610750F0B750E008066
:1058800010750F0C750E008008750F0D750E0080D9
:1058900000850F83850E82E0B40D030258DE120EE0
:1058A000CA4014120DC6AB0FA90E1258EF120ED13A
:1058B0008B0F890E50DB2212179DB40D0122121896
:1058C000CD701B1217A4120F0C120FF712179D1296
:1058D0000ED14010E0B42C06A31217A480B3903C64
:1058E000E60217B5E0B40D0122903CE60217B5AF11
:1058F0003FB40D0122B42C0122125908DF05740DAA
:10590000F280E612158580E98BA0E3B42C02740DB9
:105910008AA0F222D2D38AA0E2C2D3B42514D2D371
:1059200008B800010AC2D3E57CD2E5C2E4C2E6F5BC
:105930007C22B42314D2D308B800010AC2D3E57C78
:10594000D2E6C2E5C2E4F57C22E57CC2E6C2E5D23D
:10595000E4F57C22B406030210DCB48919A3E0B498
:1059600023061204AF0210DCB425061204AF0210A5
:10597000DC74891204AF0211500259FAD2D38AA002
:10598000E2C2D3B425F3D2D308B800010AC2D37F50
:105990002C120CFA120E9212097FC290C291D2C739
:1059A00090000474F0F0E9B4010574440259F1B4B4
:1059B000020574660259F1B4030574880259F1B402
:1059C000040574990259F1B4050574BB0259F1B488
:1059D000060574CC0259F1B4070D9000047470F000
:1059E00090000974CC800AD290D291903B87021724
:1059F000B5900009F0D290D29122B42352D2D308AC
:105A0000B800010AC2D37F2C120CFA120E921209AE
:105A10007FC290C291D2C7900001E9B401047444DE
:105A200080D2B40204746680CBB40304748880C44A
:105A3000B40404749980BDB4050474BB80B6B40684
:105A40000474CC80AFD290D291903B870217B512EC
:105A50000E92E902325DC2B5C222123236120454ED
:105A60001252411238B5C21CC21A125B059002AE26
:105A7000E0C2E7C2E5C2E4F0C210C214C223C226EB
:105A80009002FCE4F01254742220280B20130830FA
:105A90000B03200BFDC2AFC2B5D290D291D2C790FA
:105AA00002AEE0C2E7C2E5C2E4F012551022E5B84A
:105AB0000214EFE5A80214EFE5E80214EFC0E0C01D
:105AC00082C083C2E0A29092E0A29192E1A2C7922A
:105AD000E2A2B592E3C0E0D290D291D2C7C2B5E5BE
:105AE000D9030390600073D0E0A2E09290A2E1920B
:105AF00091A2E292C7A2E392B5D083D082D0E0D047
:105B0000D032D5561443871075FF00D292D2C2D23C
:105B1000C3C2C5B2C6C292D29222D290D291D2C78B
:105B2000C2B5C2C6D2C4D292D2C2D2C3D2C5C2C436
:105B3000D2C4D292C2C2C2C3C2C5C292D292D292BF
:105B4000D2C2C2C3C2C5C292D292D2C4D2C2D2C33E
:105B5000C2C5C2C4D2C4D2C4D2C2C2C3C2C5C2C4E6
:105B6000D2C4D2C4C2C2C2C3C2C5D2C4C2C4D2C4C7
:105B7000D2C4C2C2D2C3C2C5D2C4C2C4D2C4D2C4A7
:105B8000C2C2D2C3D2C5D2C4C2C4D2C4D2C4D2C289
:105B9000C2C3D2C5D2C4C2C4D2C4D2C4C2C2C2C398
:105BA000D2C5D2C4C2C4D2C4D292C2C2C2C3D2C5A8
:105BB000C292D292D292D2C2C2C3D2C5C292D29261
:105BC000D292C2C2D2C3D2C5C292D292D292D2C211
:105BD000D2C3C2C5C292D292C2C2D2C3C2C5C292FD
:105BE000D292D2C2D2C3D2C5C292D292021F9085A3
:105BF0005352855C5B855C5B857776857978900B05
:105C00000012585C900C0012585C900D0012585C09
:105C100022C2AFD2B590FFFF7BFF79FFA3E4F0EB88
:105C2000B583F9E9B582F5C2B522C2AFC2C790000B
:105C300000E0D2C7C2B5B4550F905C51C20812053E
:105C4000D1122DC11216FB22905C65C2081205D13B
:105C5000224C6F6164696E672066726F6D20464CDE
:105C600041534820224E6F2070726F6772616D2021
:105C7000696E20464C41534820746F204C4F41447C
:105C80002212354B12046679007B00C3E029F950DB
:105C9000010BC3A3121667125B0270F0EBF4240130
:105CA000FBF545E9F42401F9F54622C0D0C0E0C077
:105CB00083C082C2E0A29092E0A29192E1A2C79238
:105CC000E2A2B592E3C0E0C2B5D290D291D2C73081
:105CD0009924C299E55BB55C10C20B9002AEE0C29C
:105CE000E7F0202E02C2AC800D900700855C82E0B8
:105CF000055CD20BF599309831C298302E2C900B60
:105D000000855482E599302302F599B40A02801A7D
:105D10000554F0B55514900B00E07006A3E582B46D
:105D200004F7F55DD22DD218C22ED0E0A2E09290F9
:105D3000A2E19291A2E292C7A2E392B5D082D0836F
:105D4000D0E0D0D032F54DC083C0829002FDF0D0BB
:105D500082D08322120ECA403B8B458946C2D3C2F1
:105D6000D48BA0E3F505125DD9E0B505028009A347
:105D7000E582B43FF4022400858247AF3FE0FD8B0B
:105D8000A0E3B40D0122B50508A309B900010BDF9A
:105D9000EC022400D2D38AA0E2C2D3B4223512404E
:105DA00031F507125DD9E0B507028009A3E582B499
:105DB0003FF4022400858247A3124031B4220AD264
:105DC000D308B800010AC2D322FFE0B5070280E57C
:105DD000022400903B6B0217B5E57C20E40620E529
:105DE0000720E608900B0022900C0022900D002264
:105DF000D2D38AA0E2C2D3B4252AD2D308B80001F4
:105E00000AC2D37F2C120CFAD2D38AA0E208B800BF
:105E1000010AC2D3B43103D22622B43003C22622EF
:105E20000208DA22D2D38AA0E208B800010AC2D35B
:105E3000B43103D22322B43005C223220208DA90FF
:105E400002FCE0B4550280030206D0C2AFC083C09A
:105E500082E57DC2E5F57DC290C291900005F0C259
:105E600090C291900005E0125B0230E5F290000BC9
:105E7000E0D290D291C2E7B41302D200B41102C2B0
:105E800000B40309E4D082D0830206EF22D082D08E
:105E90008322C083C082C0E09002FCE0B45519C2E6
:105EA00090C291900005E030E503125E4BD290D293
:105EB00091D0E0D082D083221206CC80F0D292D250
:105EC000C2D2C3D2C5D2C6C292D292C0E0C083C0F1
:105ED00082900271E0D2E2F0D082D083D0E022D270
:105EE000D38AA0E2C2D3B44314D2D308B800010AC3
:105EF000C2D39002B07820E4F0A3D8FB229002FA3B
:105F0000E0FAC0E09002FBE0F8C0E0C82408C81046
:105F1000D70280010A9002FAEA5407F09002FBE8E7
:105F2000F0D2B5D082D083E0F8A3E0B4FF0CC2B5C4
:105F3000E49002FAF09002FBF022F9A3E0FAA3E069
:105F4000FBA3E0FCA3E0FDA3E0FEC2B5E501B4AA1B
:105F5000028007900A95E0B50150E502B4AA0280DC
:105F600007900A94E0B50242E503B4AA02800790C4
:105F70000A93E0B50334E504B4AA028007900A92BC
:105F8000E0B50426E505B4AA028007900A91E0B5C1
:105F90000518E875F00884FBE5F09021A793F9EB6C
:0D5FA00024B0F582758302E049F0C2B522FD
:106000000134014101510161018C019B01C601D3A1
:1060100001E001F8210721372157216A217D218ADA
:10602000219721B821D021DD21EA21F74112411F1A
:10603000413741449002AEE0D2E6F075D845025AAD
:10604000E79002ADE0D2E0F08575DA75D845025AE6
:10605000E79002ADE0D2E1F08575DA75D845025AD5
:10606000E7200C05755E008003755E80200C0590AE
:106070000A008003900A80855E82E0F5DA055E9072
:1060800002ADE0D2E2F075D845025AE7D20590029F
:10609000ADE0D2E3F075D855025AE7D5600FD206CD
:1060A0009002ADE0D2E4F075D855025AE7200C0515
:1060B000900A008003900A80855E82E0F5DA055E32
